S02200006F6F705F6164635F696E745F74696D6572315F696E745F70776D2E7372656375
S113000035C0000058C0000056C0000054C00000B5
S113001052C0000050C000004EC000004CC00000A0
S11300204AC0000048C0000046C0000020C10000D3
S113003042C0000040C000003EC000003CC00000C0
S11300403AC0000038C0000036C0000034C00000D0
S113005032C0000048C000002EC000002CC00000C8
S11300602AC0000028C00000DA00640111241FBE69
S1130070CFEFD8E0DEBFCDBF11E0A0E0B1E0E2ED0C
S1130080F4E002C005900D92AC30B107D9F721E03D
S1130090ACE0B1E001C01D92A931B207E1F710E074
S11300A0C6E3D0E003C02197FE010BD2C433D107CD
S11300B0D1F749D10CC2A4CFFC0190917C0081817D
S11300C08F71907E982B90937C00818180930C019A
S11300D080910C019281891728F480917A008064C0
S11300E080937A0008951F920F920FB60F921124F5
S11300F08F939F93EF93FF93E0910C01F0E0809135
S11301007900E35FFE4F808380910C018F5F8093C1
S11301100C0190910C0180911501981304C081E0A9
S1130120809313010EC090917C0080910C01907E0D
S11301308F71892B80937C0080917A0080648093F6
S11301407A00FF91EF919F918F910F900FBE0F90C6
S11301501F901895E62FF0E0E35FFE4F808108952D
S1130160FC01673010F4618302C086E0818347306C
S113017010F44283089586E082830895CF93DF9339
S1130180EC01EEDF898180930C011882AAE7B0E0CC
S11301908C918F608C93ECE7F0E010828081806416
S11301A080838081806280838C9180688C93DF91CE
S11301B0CF910895E3E1F1E01082118286E0828319
S11301C0089580911601811106C084B18F6384B9AA
S11301D085B1807C85B9809116018F5F809316016B
S11301E0089583B18F73089585B1807C6F73682BF4
S11301F065B90895CF92DF92EF92FF920F936A014F
S11302007B01FC01318320831092850010928400CD
S1130210E02FF0E0E050FF4F80E094E2A4EFB0E084
S1130220BC01CD01008004C09595879577956795AD
S11302300A94D2F7A701960122D1215031093093B3
S11302408900209388001092800007700860009352
S1130250810086B316BAEFE6F0E08081887D826083
S113026080830F91FF90EF90DF90CF9008951F92BD
S11302700F920FB60F9211242F933F934F935F93D6
S11302806F937F938F939F93AF93BF93EF93FF935A
S11302908091170190911801DC01ED91FC9101907E
S11302A0F081E02D0995FF91EF91BF91AF919F915E
S11302B08F917F916F915F914F913F912F910F900B
S11302C00FBE0F901F9018951092180110921701ED
S11302D00895CF93DF93EC018885998582DFEE81C1
S11302E0FF8190852581921750F01086948199237F
S11302F041F09281908393819183148202C09F5F25
S1130300908767816095682380859081891708F4B8
S113031061609181891708F462608885998564DF3A
S11303208A819B81009749F48C819D819B838A8378
S113033083E191E0DF91CF91BFCE01979B838A83C4
S1130340DF91CF910895CF93DF93CDB7DEB7649754
S11303500FB6F894DEBF0FBECDBF9BE088E10FB6A9
S1130360F894A895809360000FBE909360008E016E
S11303700C5E1F4FC80125DF60E0C80135DF1F8612
S113038084E6888B898B1B8A1B861D8683E08A8B77
S11303901C861E868AE091E09A8389831C821B82D4
S11303A088EC90E09E838D83CE010B9698878F8393
S11303B01A87098701E09E012F5F3F4F40E157E212
S11303C060E070E087E191E015DF46E064E083E1FE
S11303D091E0D4DE78940FEF10E0FF24F394809141
S11303E013018823E1F31092130164E083E191E0A7
S11303F0B1DE24E6829FC0011124B8012CD03FB79E
S1130400F8942989261708F4622F8889689FC00107
S11304101124622F70E01FD06D87FF863FBF65E017
S113042083E191E097DE24E6829FC0011124B801A4
S113043012D03FB7F8942989261708F4622F8889C7
S1130440689FC0011124622F70E005D06E87FF867B
S11304503FBFA895C4CFAA1BBB1B51E107C0AA1F6D
S1130460BB1FA617B70710F0A61BB70B881F991F51
S11304705A95A9F780959095BC01CD010895A1E204
S11304801A2EAA1BBB1BFD010DC0AA1FBB1FEE1F0A
S1130490FF1FA217B307E407F50720F0A21BB30B55
S11304A0E40BF50B661F771F881F991F1A9469F7D1
S11304B060957095809590959B01AC01BD01CF012D
S11304C00895EE0FFF1F0590F491E02D0994F89420
S10504D0FFCF58
S10F04D200000306080A00000000690195
S9030000FC
